:060000000A128A110E280D
:10000800FE00030E83120313AC000A08AD000A12A7
:100018008A11EA290A128A1111280A128A11162647
:100028000A128A11D0000A128A1117260A128A1196
:10003800D1000A128A1118260A128A11D2000A124D
:100048008A1119260A128A11D3000A128A111A264D
:100058000A128A11D400C501C601C701C801C90125
:10006800CA01CB01CC01CD01CE01CF0183010A1217
:100078008A113E280A128A1140230A128A11D529A8
:10008800013089009F1849284A28D5297B28071458
:10009800C3309F054F2850280000831203139F1474
:1000A800D52988141F08C33904389F005B285C28A9
:1000B8000000831203139F14D52907101F08C339A2
:1000C80008389F00672868280000831203139F14CC
:1000D800D52988101F08C3390C389F007328742845
:1000E8000000831203139F14D5299F10D5294808AF
:1000F800003A0319802891284708003A03197928FB
:10010800013A03194B28033A03195528013A0319F0
:100118006128073A03196D289128D52902308900EA
:100128000A128A110E260A128A1183120313CE00AC
:10013800CF010130AE004E300A128A11A3240A12F0
:100148008A11831203132E082F04031DAC28AD282F
:10015800C72807140A128A110E260A128A11831256
:100168000313C300C4014308BD004408BE000A12BB
:100178008A11FE240A128A11831203133D0895007E
:100188001C309700D5290330AE004E300A128A1170
:10019800A3240A128A11831203132E082F04031DA5
:1001A800D628D728F12888140A128A110E260A128E
:1001B8008A1183120313C300C4014308BD00440815
:1001C800BE000A128A11FE240A128A11831203132E
:1001D8003D089B001C309D00D5290530AE004E30EF
:1001E8000A128A11A3240A128A11831203132E08F1
:1001F8002F04031D00290129302907100A128A112A
:100208000E260A128A1183120313C300C40143087D
:10021800BD004408BE000A128A11D1240A128A11AC
:10022800831203133E08CC003D08CB004C08C400E1
:100238004B08C3000310C40CC30C0310C40CC30C3C
:10024800430895004B080339C300C30E170843063B
:10025800CF3943069700D5290730AE004E300A1231
:100268008A11A3240A128A11831203132E082F0459
:10027800031D3F294029912888100A128A110E2649
:100288000A128A1183120313C300C4014308BD0074
:100298004408BE000A128A11D1240A128A11831254
:1002A80003133E08CA003D08C9004A08C4004908AB
:1002B800C3000310C40CC30C0310C40CC30C4308C4
:1002C8009B0049080339C300C30E1D084306EF39D4
:1002D80043069D00D529043089004D080A128A1169
:1002E800EE250A128A1183120313950054080A1284
:1002F8008A11EE250A128A118312031397005308F4
:100308000A128A11EE250A128A11831203139B001E
:1003180052080A128A11EE250A128A11831203134F
:100328009D0051080A128A11EE250A128A11FF3A15
:10033800031D9F29A029A429831203130714B42994
:100348008312031351080A128A11EE250A128A1120
:10035800003A031DB029B129B429831203130710E9
:100368008312031350080A128A11EE250A128A1101
:10037800FF3A031DC029C129C52983120313881414
:10038800D5298312031350080A128A11EE250A127E
:100398008A11003A031DD129D22991288312031307
:1003A8008810831203134608003A0319DC29D5295B
:1003B8004508013A03194428033A03199228013AD7
:1003C80003196F29D5290A128A110E280C1FED2945
:1003D800EE29892A1F0CAA002A0C0F39003A031D9E
:1003E800F629F7290A2A1E08AA00AB012A08A40040
:1003F8002B08A5000A128A112B250A128A118312CA
:100408000313240895001C309700882A1F0CAA00A3
:100418002A0C0F39013A031D122A132A262A1E080C
:10042800AA00AB012A08A4002B08A5000A128A1109
:100438002B250A128A118312031324089B001C30EF
:100448009D00882A1F0CAA002A0C0F39023A031DA6
:100458002E2A2F2A572A1E08AA00AB012A08A40010
:100468002B08A5000A128A1156250A128A1183122E
:1004780003132508CC002408CB004C08AB004B081C
:10048800AA000310AB0CAA0C0310AB0CAA0C2A0888
:1004980095004B080339AA00AA0E17082A06CF3977
:1004A8002A069700882A1F0CAA002A0C0F39033A3B
:1004B800031D5F2A602A882A1E08AA00AB012A08A1
:1004C800A4002B08A5000A128A1156250A128A11BF
:1004D800831203132508CA002408C9004A08AB0080
:1004E8004908AA000310AB0CAA0C0310AB0CAA0C09
:1004F8002A089B0049080339AA00AA0E1D082A06E3
:10050800EF392A069D00882A0C130B1C8C2A8D2A89
:10051800372B0618902A912A962A0130C7000030F6
:10052800C800362B8618992A9A2A9F2A0230C700B3
:100538000030C800362B0619A22AA32AA82A03309D
:10054800C7000030C800362B8619AB2AAC2AB12A5E
:100558000430C7000030C800362B061AB42AB52A62
:10056800BA2A0130C5000030C600362B861ABD2ACB
:10057800BE2AC32A0230C5000030C600362B061B2F
:10058800C62AC72ACC2A0330C5000030C600362B3D
:10059800861BCF2AD02A362B1508F0004D080A12E0
:1005A8008A11CD250A128A11831203131708F00045
:1005B80054080A128A11CD250A128A1183120313CC
:1005C8001B08F00053080A128A11CD250A128A1155
:1005D800831203131D08F00052080A128A11CD2550
:1005E8000A128A118312031347034804031DFD2AC4
:1005F800FE2A072BFF30F00051080A128A11CD2578
:100608000A128A11152B033047064804031D0D2BC7
:100618000E2B152BF00151080A128A11CD250A124A
:100628008A1102308312031347064804031D1D2B49
:100638001E2B272BFF30F00050080A128A11CD25F7
:100648000A128A11362B043047064804031D2D2B45
:100658002E2B362BF00150080A128A11CD250A12CA
:100668008A11362B0B10831203132D088A002C0EC7
:100678008300FE0E7E0E09008316031381130F30CC
:1006880083160317880089018316031388018312D0
:1006980003138801FF3083160313850083120313A5
:1006A8008501FF3083160313860083120313860126
:1006B800FF30831603139500FF30960089018312DB
:1006C800031389018316031307100F088F39303875
:1006D8008F000F1418121815831603178715193071
:1006E8008316031399009A0183120313981718139A
:1006F8001816831603139816831203131F083F391D
:1007080040389F00831603131F129F12C3308312B1
:1007180003139F05831603139F13831203131F14D8
:10072800952B962B000083160313071587149B300F
:1007380092008312031397019D013F3097051D080E
:10074800F0390C389D001708F0390C389700043040
:10075800950004309B0017121D128C100330920470
:100768001215073092008C1CBA2BBB2BB72B8C10A0
:1007780083160313071187108B150B1083120313AD
:100788000C13831603130C170B178B178312031301
:100798008C12831603138C12080083120313BA01F8
:1007A800B51FD72BD82BDF2BB409B509B40A031909
:1007B800B50ABA01BA0AB71FE22BE32BEC2BB6092C
:1007C800B709B60A0319B70A0130B8003808BA06DB
:1007D800BB01BC01340835040319F32BF42B2B2C73
:1007E800B901B90A022C01300310B40DB50DFF3E52
:1007F800031DF82B0130B8003808B907B51F052CC0
:10080800062CF72B01300310BB0DBC0DFF3E031D5A
:10081800072C35083702031D132C34083602031C35
:10082800162C172C1E2C3408B6023508031CB703E7
:10083800B7023B1401300310B50CB40CFF3E031D86
:100848001F2C0130B902031D2A2C2B2C062C3A0828
:1008580003192F2C302C352CBB09BC09BB0A0319F2
:10086800BC0A3C08B5003B08B40008008312031317
:10087800A101F71F402C412C482CF609F709F60A6C
:100888000319F70AA101A10AF91F4B2C4C2C552C6E
:10089800F809F909F80A0319F90A0130FA007A087F
:1008A800A106A201A3017608770403195C2C5D2C2C
:1008B800942CA001A00A6B2C01300310F60DF70D43
:1008C800FF3E031D612C0130FA007A08A007F71FCC
:1008D8006E2C6F2C602C01300310A20DA30DFF3E6F
:1008E800031D702C77087902031D7C2C760878028A
:1008F800031C7F2C802C872C7608F8027708031CB1
:10090800F903F902221401300310F70CF60CFF3E2C
:10091800031D882C0130A002031D932C942C6F2CEE
:1009280021080319982C992C9E2CA209A309A20A24
:100938000319A30A2308F7002208F6000800831207
:100948000313B300AF2C0130B0003008B3070130F7
:10095800B0003008AE072E0884000A128A1100265B
:100968000A128A11B0003308840083130008B1000A
:1009780030083102B2003208031DC32CC42CCB2C22
:10098800330884000008031DCA2CCB2CA72C32087E
:10099800AE00AF01AE1BAF0308007F308312031314
:1009A800B4000030B5003E08AF003D08AE00383056
:1009B800B0000030B1000A128A1181250A128A118A
:1009C800831203132F08B7002E08B6000A128A11E3
:1009D800D1230A128A11831203133408093EBF0077
:1009E80035080318013E003EC0004008BE003F081D
:1009F800BD0008008C3083120313BF000030C00014
:100A08007F30B4000030B5003E08AF003D08AE00AE
:100A18008C30B0000030B1000A128A1181250A1208
:100A28008A11831203132F08B7002E08B6000A1282
:100A38008A11D1230A128A11831203133508C200BE
:100A48003408C1004208BE004108BD0008008C30CF
:100A580083120313A6000030A700FF30F600003011
:100A6800F7002508F1002408F0008C30F20000306F
:100A7800F3000A128A11A8250A128A117108F900CE
:100A88007008F8000A128A113A240A128A117708A3
:100A980083120313A9007608A8002908A5002808CE
:100AA800A4000800FF30F6000030F700831203139B
:100AB8002508F1002408F0003830F2000030F30077
:100AC8000A128A11A8250A128A117108F9007008F9
:100AD800F8000A128A113A240A128A117608093E85
:100AE800FB0077080318013E003EFC007C088312D7
:100AF8000313A5007B08A400080083120313B201A6
:100B0800B3012E1C882D892D8F2D3008B2070318AC
:100B1800B30A3108B30701300310B00DB10DFF3E21
:100B2800031D902D01300310AF0CAE0CFF3E031DCA
:100B3800972D2E082F04031DA22DA32D852D3308D4
:100B4800AF003208AE000800F401F501701CAD2DAD
:100B5800AE2DB42D7208F4070318F50A7308F507CB
:100B680001300310F20DF30DFF3E031DB52D0130CA
:100B78000310F10CF00CFF3E031DBC2D700871042E
:100B8800031DC72DC82DAA2D7508F1007408F000A3
:100B98000800F1007108831203178D0070088C009B
:100BA800831603178C130C158B1355308D00AA3040
:100BB8008D008C14831203130D1EE32DE42DDE2DFE
:100BC8000D12831603170C110B10831203130C1349
:100BD8008B17080083120313AE002E088312031725
:100BE8008D00831603178C130C14831203170C083B
:020BF8000800F3
:100C000006308A000408840A820700343134003434
:100C10003234003433340034343400348312031358
:100C20008C1E132E142E0E2E1A08080005340634BE
:060C30000334023401341C
:08400000FF3FFF3FFF3FFF3FC0
:04400E00D420FF3F7C
:00000001FF
